{
  "_format": "hh-sol-artifact-1",
  "contractName": "NFTMarket",
  "sourceName": "contracts/NFTMarket.sol",
  "abi": [
    {
      "inputs": [],
      "stateMutability": "nonpayable",
      "type": "constructor"
    },
    {
      "anonymous": false,
      "inputs": [
        {
          "indexed": true,
          "internalType": "address",
          "name": "owner",
          "type": "address"
        },
        {
          "indexed": true,
          "internalType": "address",
          "name": "approved",
          "type": "address"
        },
        {
          "indexed": true,
          "internalType": "uint256",
          "name": "tokenId",
          "type": "uint256"
        }
      ],
      "name": "Approval",
      "type": "event"
    },
    {
      "anonymous": false,
      "inputs": [
        {
          "indexed": true,
          "internalType": "address",
          "name": "owner",
          "type": "address"
        },
        {
          "indexed": true,
          "internalType": "address",
          "name": "operator",
          "type": "address"
        },
        {
          "indexed": false,
          "internalType": "bool",
          "name": "approved",
          "type": "bool"
        }
      ],
      "name": "ApprovalForAll",
      "type": "event"
    },
    {
      "anonymous": false,
      "inputs": [
        {
          "indexed": false,
          "internalType": "uint256",
          "name": "_fromTokenId",
          "type": "uint256"
        },
        {
          "indexed": false,
          "internalType": "uint256",
          "name": "_toTokenId",
          "type": "uint256"
        }
      ],
      "name": "BatchMetadataUpdate",
      "type": "event"
    },
    {
      "anonymous": false,
      "inputs": [
        {
          "indexed": true,
          "internalType": "uint256",
          "name": "tokenId",
          "type": "uint256"
        },
        {
          "indexed": false,
          "internalType": "address",
          "name": "seller",
          "type": "address"
        },
        {
          "indexed": false,
          "internalType": "address",
          "name": "owner",
          "type": "address"
        },
        {
          "indexed": false,
          "internalType": "uint256",
          "name": "price",
          "type": "uint256"
        },
        {
          "indexed": false,
          "internalType": "bool",
          "name": "sold",
          "type": "bool"
        }
      ],
      "name": "MarketItemCreated",
      "type": "event"
    },
    {
      "anonymous": false,
      "inputs": [
        {
          "indexed": false,
          "internalType": "uint256",
          "name": "_tokenId",
          "type": "uint256"
        }
      ],
      "name": "MetadataUpdate",
      "type": "event"
    },
    {
      "anonymous": false,
      "inputs": [
        {
          "indexed": true,
          "internalType": "address",
          "name": "from",
          "type": "address"
        },
        {
          "indexed": true,
          "internalType": "address",
          "name": "to",
          "type": "address"
        },
        {
          "indexed": true,
          "internalType": "uint256",
          "name": "tokenId",
          "type": "uint256"
        }
      ],
      "name": "Transfer",
      "type": "event"
    },
    {
      "inputs": [
        {
          "internalType": "uint256",
          "name": "tokenId",
          "type": "uint256"
        }
      ],
      "name": "NFTByTokenID",
      "outputs": [
        {
          "components": [
            {
              "internalType": "uint256",
              "name": "tokenId",
              "type": "uint256"
            },
            {
              "internalType": "address payable",
              "name": "seller",
              "type": "address"
            },
            {
              "internalType": "address payable",
              "name": "owner",
              "type": "address"
            },
            {
              "internalType": "uint256",
              "name": "price",
              "type": "uint256"
            },
            {
              "internalType": "bool",
              "name": "sold",
              "type": "bool"
            }
          ],
          "internalType": "struct NFTMarket.MarketItem",
          "name": "",
          "type": "tuple"
        }
      ],
      "stateMutability": "view",
      "type": "function"
    },
    {
      "inputs": [
        {
          "internalType": "address",
          "name": "to",
          "type": "address"
        },
        {
          "internalType": "uint256",
          "name": "tokenId",
          "type": "uint256"
        }
      ],
      "name": "approve",
      "outputs": [],
      "stateMutability": "nonpayable",
      "type": "function"
    },
    {
      "inputs": [
        {
          "internalType": "address",
          "name": "owner",
          "type": "address"
        }
      ],
      "name": "balanceOf",
      "outputs": [
        {
          "internalType": "uint256",
          "name": "",
          "type": "uint256"
        }
      ],
      "stateMutability": "view",
      "type": "function"
    },
    {
      "inputs": [
        {
          "internalType": "uint256",
          "name": "tokenId",
          "type": "uint256"
        }
      ],
      "name": "createMarketSale",
      "outputs": [],
      "stateMutability": "payable",
      "type": "function"
    },
    {
      "inputs": [
        {
          "internalType": "string",
          "name": "tokenURI",
          "type": "string"
        },
        {
          "internalType": "uint256",
          "name": "price",
          "type": "uint256"
        }
      ],
      "name": "createToken",
      "outputs": [
        {
          "internalType": "uint256",
          "name": "",
          "type": "uint256"
        }
      ],
      "stateMutability": "payable",
      "type": "function"
    },
    {
      "inputs": [],
      "name": "fetchMarketItems",
      "outputs": [
        {
          "components": [
            {
              "internalType": "uint256",
              "name": "tokenId",
              "type": "uint256"
            },
            {
              "internalType": "address payable",
              "name": "seller",
              "type": "address"
            },
            {
              "internalType": "address payable",
              "name": "owner",
              "type": "address"
            },
            {
              "internalType": "uint256",
              "name": "price",
              "type": "uint256"
            },
            {
              "internalType": "bool",
              "name": "sold",
              "type": "bool"
            }
          ],
          "internalType": "struct NFTMarket.MarketItem[]",
          "name": "",
          "type": "tuple[]"
        }
      ],
      "stateMutability": "view",
      "type": "function"
    },
    {
      "inputs": [],
      "name": "fetchMyNFTs",
      "outputs": [
        {
          "components": [
            {
              "internalType": "uint256",
              "name": "tokenId",
              "type": "uint256"
            },
            {
              "internalType": "address payable",
              "name": "seller",
              "type": "address"
            },
            {
              "internalType": "address payable",
              "name": "owner",
              "type": "address"
            },
            {
              "internalType": "uint256",
              "name": "price",
              "type": "uint256"
            },
            {
              "internalType": "bool",
              "name": "sold",
              "type": "bool"
            }
          ],
          "internalType": "struct NFTMarket.MarketItem[]",
          "name": "",
          "type": "tuple[]"
        }
      ],
      "stateMutability": "view",
      "type": "function"
    },
    {
      "inputs": [
        {
          "internalType": "uint256",
          "name": "tokenId",
          "type": "uint256"
        }
      ],
      "name": "getApproved",
      "outputs": [
        {
          "internalType": "address",
          "name": "",
          "type": "address"
        }
      ],
      "stateMutability": "view",
      "type": "function"
    },
    {
      "inputs": [],
      "name": "getListingFee",
      "outputs": [
        {
          "internalType": "uint256",
          "name": "",
          "type": "uint256"
        }
      ],
      "stateMutability": "view",
      "type": "function"
    },
    {
      "inputs": [
        {
          "internalType": "address",
          "name": "owner",
          "type": "address"
        },
        {
          "internalType": "address",
          "name": "operator",
          "type": "address"
        }
      ],
      "name": "isApprovedForAll",
      "outputs": [
        {
          "internalType": "bool",
          "name": "",
          "type": "bool"
        }
      ],
      "stateMutability": "view",
      "type": "function"
    },
    {
      "inputs": [],
      "name": "name",
      "outputs": [
        {
          "internalType": "string",
          "name": "",
          "type": "string"
        }
      ],
      "stateMutability": "view",
      "type": "function"
    },
    {
      "inputs": [
        {
          "internalType": "uint256",
          "name": "tokenId",
          "type": "uint256"
        }
      ],
      "name": "ownerOf",
      "outputs": [
        {
          "internalType": "address",
          "name": "",
          "type": "address"
        }
      ],
      "stateMutability": "view",
      "type": "function"
    },
    {
      "inputs": [
        {
          "internalType": "address",
          "name": "from",
          "type": "address"
        },
        {
          "internalType": "address",
          "name": "to",
          "type": "address"
        },
        {
          "internalType": "uint256",
          "name": "tokenId",
          "type": "uint256"
        }
      ],
      "name": "safeTransferFrom",
      "outputs": [],
      "stateMutability": "nonpayable",
      "type": "function"
    },
    {
      "inputs": [
        {
          "internalType": "address",
          "name": "from",
          "type": "address"
        },
        {
          "internalType": "address",
          "name": "to",
          "type": "address"
        },
        {
          "internalType": "uint256",
          "name": "tokenId",
          "type": "uint256"
        },
        {
          "internalType": "bytes",
          "name": "data",
          "type": "bytes"
        }
      ],
      "name": "safeTransferFrom",
      "outputs": [],
      "stateMutability": "nonpayable",
      "type": "function"
    },
    {
      "inputs": [
        {
          "internalType": "address",
          "name": "operator",
          "type": "address"
        },
        {
          "internalType": "bool",
          "name": "approved",
          "type": "bool"
        }
      ],
      "name": "setApprovalForAll",
      "outputs": [],
      "stateMutability": "nonpayable",
      "type": "function"
    },
    {
      "inputs": [
        {
          "internalType": "bytes4",
          "name": "interfaceId",
          "type": "bytes4"
        }
      ],
      "name": "supportsInterface",
      "outputs": [
        {
          "internalType": "bool",
          "name": "",
          "type": "bool"
        }
      ],
      "stateMutability": "view",
      "type": "function"
    },
    {
      "inputs": [],
      "name": "symbol",
      "outputs": [
        {
          "internalType": "string",
          "name": "",
          "type": "string"
        }
      ],
      "stateMutability": "view",
      "type": "function"
    },
    {
      "inputs": [
        {
          "internalType": "uint256",
          "name": "tokenId",
          "type": "uint256"
        }
      ],
      "name": "tokenURI",
      "outputs": [
        {
          "internalType": "string",
          "name": "",
          "type": "string"
        }
      ],
      "stateMutability": "view",
      "type": "function"
    },
    {
      "inputs": [
        {
          "internalType": "address",
          "name": "from",
          "type": "address"
        },
        {
          "internalType": "address",
          "name": "to",
          "type": "address"
        },
        {
          "internalType": "uint256",
          "name": "tokenId",
          "type": "uint256"
        }
      ],
      "name": "transferFrom",
      "outputs": [],
      "stateMutability": "nonpayable",
      "type": "function"
    }
  ],
  "bytecode": "0x60806040526000600a553480156200001657600080fd5b506040518060400160405280600a81526020017f4e46544820434841494e000000000000000000000000000000000000000000008152506040518060400160405280600481526020017f4e4654480000000000000000000000000000000000000000000000000000000081525081600090816200009491906200036a565b508060019081620000a691906200036a565b50505033600960006101000a81548173ffffffffffffffffffffffffffffffffffffffff021916908373ffffffffffffffffffffffffffffffffffffffff16021790555062000451565b600081519050919050565b7f4e487b7100000000000000000000000000000000000000000000000000000000600052604160045260246000fd5b7f4e487b7100000000000000000000000000000000000000000000000000000000600052602260045260246000fd5b600060028204905060018216806200017257607f821691505b6020821081036200018857620001876200012a565b5b50919050565b60008190508160005260206000209050919050565b60006020601f8301049050919050565b600082821b905092915050565b600060088302620001f27fffffffffffffffffffffffffffffffffffffffffffffffffffffffffffffffff82620001b3565b620001fe8683620001b3565b95508019841693508086168417925050509392505050565b6000819050919050565b6000819050919050565b60006200024b620002456200023f8462000216565b62000220565b62000216565b9050919050565b6000819050919050565b62000267836200022a565b6200027f620002768262000252565b848454620001c0565b825550505050565b600090565b6200029662000287565b620002a38184846200025c565b505050565b5b81811015620002cb57620002bf6000826200028c565b600181019050620002a9565b5050565b601f8211156200031a57620002e4816200018e565b620002ef84620001a3565b81016020851015620002ff578190505b620003176200030e85620001a3565b830182620002a8565b50505b505050565b600082821c905092915050565b60006200033f600019846008026200031f565b1980831691505092915050565b60006200035a83836200032c565b9150826002028217905092915050565b6200037582620000f0565b67ffffffffffffffff811115620003915762000390620000fb565b5b6200039d825462000159565b620003aa828285620002cf565b600060209050601f831160018114620003e25760008415620003cd578287015190505b620003d985826200034c565b86555062000449565b601f198416620003f2866200018e565b60005b828110156200041c57848901518255600182019150602085019450602081019050620003f5565b868310156200043c578489015162000438601f8916826200032c565b8355505b6001600288020188555050505b505050505050565b613c1380620004616000396000f3fe6080604052600436106101145760003560e01c80636352211e116100a0578063b88d4fde11610064578063b88d4fde146103ca578063b8fe6abe146103f3578063be9af5361461041e578063c87b56dd1461043a578063e985e9c51461047757610114565b80636352211e146102cc57806370a082311461030957806372b3b6201461034657806395d89b4114610376578063a22cb465146103a157610114565b80630c22e64f116100e75780630c22e64f146101e75780630f08efe014610224578063202e37401461024f57806323b872dd1461027a57806342842e0e146102a357610114565b806301ffc9a71461011957806306fdde0314610156578063081812fc14610181578063095ea7b3146101be575b600080fd5b34801561012557600080fd5b50610140600480360381019061013b9190612624565b6104b4565b60405161014d919061266c565b60405180910390f35b34801561016257600080fd5b5061016b610515565b6040516101789190612717565b60405180910390f35b34801561018d57600080fd5b506101a860048036038101906101a3919061276f565b6105a7565b6040516101b591906127dd565b60405180910390f35b3480156101ca57600080fd5b506101e560048036038101906101e09190612824565b6105ed565b005b3480156101f357600080fd5b5061020e6004803603810190610209919061276f565b610704565b60405161021b919061290b565b60405180910390f35b34801561023057600080fd5b5061023961080c565b6040516102469190612a3d565b60405180910390f35b34801561025b57600080fd5b50610264610a6e565b6040516102719190612a3d565b60405180910390f35b34801561028657600080fd5b506102a1600480360381019061029c9190612a5f565b610d54565b005b3480156102af57600080fd5b506102ca60048036038101906102c59190612a5f565b610db4565b005b3480156102d857600080fd5b506102f360048036038101906102ee919061276f565b610dd4565b60405161030091906127dd565b60405180910390f35b34801561031557600080fd5b50610330600480360381019061032b9190612ab2565b610e5a565b60405161033d9190612aee565b60405180910390f35b610360600480360381019061035b9190612c3e565b610f11565b60405161036d9190612aee565b60405180910390f35b34801561038257600080fd5b5061038b610f53565b6040516103989190612717565b60405180910390f35b3480156103ad57600080fd5b506103c860048036038101906103c39190612cc6565b610fe5565b005b3480156103d657600080fd5b506103f160048036038101906103ec9190612da7565b610ffb565b005b3480156103ff57600080fd5b5061040861105d565b6040516104159190612aee565b60405180910390f35b6104386004803603810190610433919061276f565b611067565b005b34801561044657600080fd5b50610461600480360381019061045c919061276f565b611249565b60405161046e9190612717565b60405180910390f35b34801561048357600080fd5b5061049e60048036038101906104999190612e2a565b61135b565b6040516104ab919061266c565b60405180910390f35b6000634906490660e01b7bffffffffffffffffffffffffffffffffffffffffffffffffffffffff1916827bffffffffffffffffffffffffffffffffffffffffffffffffffffffff1916148061050e575061050d826113ef565b5b9050919050565b60606000805461052490612e99565b80601f016020809104026020016040519081016040528092919081815260200182805461055090612e99565b801561059d5780601f106105725761010080835404028352916020019161059d565b820191906000526020600020905b81548152906001019060200180831161058057829003601f168201915b5050505050905090565b60006105b2826114d1565b6004600083815260200190815260200160002060009054906101000a900473ffffffffffffffffffffffffffffffffffffffff169050919050565b60006105f882610dd4565b90508073ffffffffffffffffffffffffffffffffffffffff168373ffffffffffffffffffffffffffffffffffffffff1603610668576040517f08c379a000000000000000000000000000000000000000000000000000000000815260040161065f90612f3c565b60405180910390fd5b8073ffffffffffffffffffffffffffffffffffffffff1661068761151c565b73ffffffffffffffffffffffffffffffffffffffff1614806106b657506106b5816106b061151c565b61135b565b5b6106f5576040517f08c379a00000000000000000000000000000000000000000000000000000000081526004016106ec90612fce565b60405180910390fd5b6106ff8383611524565b505050565b61070c61255b565b600b60008381526020019081526020016000206040518060a0016040529081600082015481526020016001820160009054906101000a900473ffffffffffffffffffffffffffffffffffffffff1673ffffffffffffffffffffffffffffffffffffffff1673ffffffffffffffffffffffffffffffffffffffff1681526020016002820160009054906101000a900473ffffffffffffffffffffffffffffffffffffffff1673ffffffffffffffffffffffffffffffffffffffff1673ffffffffffffffffffffffffffffffffffffffff168152602001600382015481526020016004820160009054906101000a900460ff1615151515815250509050919050565b6060600061081a60076115dd565b9050600061082860086115dd565b61083260076115dd565b61083c919061301d565b90506000808267ffffffffffffffff81111561085b5761085a612b13565b5b60405190808252806020026020018201604052801561089457816020015b61088161255b565b8152602001906001900390816108795790505b50905060005b84811015610a63573073ffffffffffffffffffffffffffffffffffffffff16600b60006001846108ca9190613051565b815260200190815260200160002060020160009054906101000a900473ffffffffffffffffffffffffffffffffffffffff1673ffffffffffffffffffffffffffffffffffffffff1603610a50576000600b600060018461092a9190613051565b81526020019081526020016000209050806040518060a0016040529081600082015481526020016001820160009054906101000a900473ffffffffffffffffffffffffffffffffffffffff1673ffffffffffffffffffffffffffffffffffffffff1673ffffffffffffffffffffffffffffffffffffffff1681526020016002820160009054906101000a900473ffffffffffffffffffffffffffffffffffffffff1673ffffffffffffffffffffffffffffffffffffffff1673ffffffffffffffffffffffffffffffffffffffff168152602001600382015481526020016004820160009054906101000a900460ff161515151581525050838581518110610a3457610a33613085565b5b6020026020010181905250600184610a4c9190613051565b9350505b8080610a5b906130b4565b91505061089a565b508094505050505090565b60606000610a7c60076115dd565b905060008060005b83811015610b24573373ffffffffffffffffffffffffffffffffffffffff16600b6000600184610ab49190613051565b815260200190815260200160002060020160009054906101000a900473ffffffffffffffffffffffffffffffffffffffff1673ffffffffffffffffffffffffffffffffffffffff1603610b1157600183610b0e9190613051565b92505b8080610b1c906130b4565b915050610a84565b5060008267ffffffffffffffff811115610b4157610b40612b13565b5b604051908082528060200260200182016040528015610b7a57816020015b610b6761255b565b815260200190600190039081610b5f5790505b50905060005b84811015610d49573373ffffffffffffffffffffffffffffffffffffffff16600b6000600184610bb09190613051565b815260200190815260200160002060020160009054906101000a900473ffffffffffffffffffffffffffffffffffffffff1673ffffffffffffffffffffffffffffffffffffffff1603610d36576000600b6000600184610c109190613051565b81526020019081526020016000209050806040518060a0016040529081600082015481526020016001820160009054906101000a900473ffffffffffffffffffffffffffffffffffffffff1673ffffffffffffffffffffffffffffffffffffffff1673ffffffffffffffffffffffffffffffffffffffff1681526020016002820160009054906101000a900473ffffffffffffffffffffffffffffffffffffffff1673ffffffffffffffffffffffffffffffffffffffff1673ffffffffffffffffffffffffffffffffffffffff168152602001600382015481526020016004820160009054906101000a900460ff161515151581525050838581518110610d1a57610d19613085565b5b6020026020010181905250600184610d329190613051565b9350505b8080610d41906130b4565b915050610b80565b508094505050505090565b610d65610d5f61151c565b826115eb565b610da4576040517f08c379a0000000000000000000000000000000000000000000000000000000008152600401610d9b9061316e565b60405180910390fd5b610daf838383611680565b505050565b610dcf83838360405180602001604052806000815250610ffb565b505050565b600080610de083611979565b9050600073ffffffffffffffffffffffffffffffffffffffff168173ffffffffffffffffffffffffffffffffffffffff1603610e51576040517f08c379a0000000000000000000000000000000000000000000000000000000008152600401610e48906131da565b60405180910390fd5b80915050919050565b60008073ffffffffffffffffffffffffffffffffffffffff168273ffffffffffffffffffffffffffffffffffffffff1603610eca576040517f08c379a0000000000000000000000000000000000000000000000000000000008152600401610ec19061326c565b60405180910390fd5b600360008373ffffffffffffffffffffffffffffffffffffffff1673ffffffffffffffffffffffffffffffffffffffff168152602001908152602001600020549050919050565b6000610f1d60076119b6565b6000610f2960076115dd565b9050610f3533826119cc565b610f3f8185611be9565b610f498184611c8d565b8091505092915050565b606060018054610f6290612e99565b80601f0160208091040260200160405190810160405280929190818152602001828054610f8e90612e99565b8015610fdb5780601f10610fb057610100808354040283529160200191610fdb565b820191906000526020600020905b815481529060010190602001808311610fbe57829003601f168201915b5050505050905090565b610ff7610ff061151c565b8383611e92565b5050565b61100c61100661151c565b836115eb565b61104b576040517f08c379a00000000000000000000000000000000000000000000000000000000081526004016110429061316e565b60405180910390fd5b61105784848484611ffe565b50505050565b6000600a54905090565b6000600b60008381526020019081526020016000206003015490508034146110c4576040517f08c379a00000000000000000000000000000000000000000000000000000000081526004016110bb906132fe565b60405180910390fd5b33600b600084815260200190815260200160002060020160006101000a81548173ffffffffffffffffffffffffffffffffffffffff021916908373ffffffffffffffffffffffffffffffffffffffff1602179055506001600b600084815260200190815260200160002060040160006101000a81548160ff02191690831515021790555061115260086119b6565b61115d303384611680565b600960009054906101000a900473ffffffffffffffffffffffffffffffffffffffff1673ffffffffffffffffffffffffffffffffffffffff166108fc600a549081150290604051600060405180830381858888f193505050501580156111c7573d6000803e3d6000fd5b50600b600083815260200190815260200160002060010160009054906101000a900473ffffffffffffffffffffffffffffffffffffffff1673ffffffffffffffffffffffffffffffffffffffff166108fc349081150290604051600060405180830381858888f19350505050158015611244573d6000803e3d6000fd5b505050565b6060611254826114d1565b600060066000848152602001908152602001600020805461127490612e99565b80601f01602080910402602001604051908101604052809291908181526020018280546112a090612e99565b80156112ed5780601f106112c2576101008083540402835291602001916112ed565b820191906000526020600020905b8154815290600101906020018083116112d057829003601f168201915b5050505050905060006112fe61205a565b90506000815103611313578192505050611356565b60008251111561134857808260405160200161133092919061335a565b60405160208183030381529060405292505050611356565b61135184612071565b925050505b919050565b6000600560008473ffffffffffffffffffffffffffffffffffffffff1673ffffffffffffffffffffffffffffffffffffffff16815260200190815260200160002060008373ffffffffffffffffffffffffffffffffffffffff1673ffffffffffffffffffffffffffffffffffffffff16815260200190815260200160002060009054906101000a900460ff16905092915050565b60007f80ac58cd000000000000000000000000000000000000000000000000000000007bffffffffffffffffffffffffffffffffffffffffffffffffffffffff1916827bffffffffffffffffffffffffffffffffffffffffffffffffffffffff191614806114ba57507f5b5e139f000000000000000000000000000000000000000000000000000000007bffffffffffffffffffffffffffffffffffffffffffffffffffffffff1916827bffffffffffffffffffffffffffffffffffffffffffffffffffffffff1916145b806114ca57506114c9826120d9565b5b9050919050565b6114da81612143565b611519576040517f08c379a0000000000000000000000000000000000000000000000000000000008152600401611510906131da565b60405180910390fd5b50565b600033905090565b816004600083815260200190815260200160002060006101000a81548173ffffffffffffffffffffffffffffffffffffffff021916908373ffffffffffffffffffffffffffffffffffffffff160217905550808273ffffffffffffffffffffffffffffffffffffffff1661159783610dd4565b73ffffffffffffffffffffffffffffffffffffffff167f8c5be1e5ebec7d5bd14f71427d1e84f3dd0314c0f7b2291e5b200ac8c7c3b92560405160405180910390a45050565b600081600001549050919050565b6000806115f783610dd4565b90508073ffffffffffffffffffffffffffffffffffffffff168473ffffffffffffffffffffffffffffffffffffffff1614806116395750611638818561135b565b5b8061167757508373ffffffffffffffffffffffffffffffffffffffff1661165f846105a7565b73ffffffffffffffffffffffffffffffffffffffff16145b91505092915050565b8273ffffffffffffffffffffffffffffffffffffffff166116a082610dd4565b73ffffffffffffffffffffffffffffffffffffffff16146116f6576040517f08c379a00000000000000000000000000000000000000000000000000000000081526004016116ed906133f0565b60405180910390fd5b600073ffffffffffffffffffffffffffffffffffffffff168273ffffffffffffffffffffffffffffffffffffffff1603611765576040517f08c379a000000000000000000000000000000000000000000000000000000000815260040161175c90613482565b60405180910390fd5b6117728383836001612184565b8273ffffffffffffffffffffffffffffffffffffffff1661179282610dd4565b73ffffffffffffffffffffffffffffffffffffffff16146117e8576040517f08c379a00000000000000000000000000000000000000000000000000000000081526004016117df906133f0565b60405180910390fd5b6004600082815260200190815260200160002060006101000a81549073ffffffffffffffffffffffffffffffffffffffff02191690556001600360008573ffffffffffffffffffffffffffffffffffffffff1673ffffffffffffffffffffffffffffffffffffffff168152602001908152602001600020600082825403925050819055506001600360008473ffffffffffffffffffffffffffffffffffffffff1673ffffffffffffffffffffffffffffffffffffffff16815260200190815260200160002060008282540192505081905550816002600083815260200190815260200160002060006101000a81548173ffffffffffffffffffffffffffffffffffffffff021916908373ffffffffffffffffffffffffffffffffffffffff160217905550808273ffffffffffffffffffffffffffffffffffffffff168473ffffffffffffffffffffffffffffffffffffffff167fddf252ad1be2c89b69c2b068fc378daa952ba7f163c4a11628f55a4df523b3ef60405160405180910390a4611974838383600161218a565b505050565b60006002600083815260200190815260200160002060009054906101000a900473ffffffffffffffffffffffffffffffffffffffff169050919050565b6001816000016000828254019250508190555050565b600073ffffffffffffffffffffffffffffffffffffffff168273ffffffffffffffffffffffffffffffffffffffff1603611a3b576040517f08c379a0000000000000000000000000000000000000000000000000000000008152600401611a32906134ee565b60405180910390fd5b611a4481612143565b15611a84576040517f08c379a0000000000000000000000000000000000000000000000000000000008152600401611a7b9061355a565b60405180910390fd5b611a92600083836001612184565b611a9b81612143565b15611adb576040517f08c379a0000000000000000000000000000000000000000000000000000000008152600401611ad29061355a565b60405180910390fd5b6001600360008473ffffffffffffffffffffffffffffffffffffffff1673ffffffffffffffffffffffffffffffffffffffff16815260200190815260200160002060008282540192505081905550816002600083815260200190815260200160002060006101000a81548173ffffffffffffffffffffffffffffffffffffffff021916908373ffffffffffffffffffffffffffffffffffffffff160217905550808273ffffffffffffffffffffffffffffffffffffffff16600073ffffffffffffffffffffffffffffffffffffffff167fddf252ad1be2c89b69c2b068fc378daa952ba7f163c4a11628f55a4df523b3ef60405160405180910390a4611be560008383600161218a565b5050565b611bf282612143565b611c31576040517f08c379a0000000000000000000000000000000000000000000000000000000008152600401611c28906135ec565b60405180910390fd5b80600660008481526020019081526020016000209081611c5191906137b8565b507ff8e1a15aba9398e019f0b49df1a4fde98ee17ae345cb5f6b5e2c27f5033e8ce782604051611c819190612aee565b60405180910390a15050565b6000811015611cd1576040517f08c379a0000000000000000000000000000000000000000000000000000000008152600401611cc8906138d6565b60405180910390fd5b600a543414611d15576040517f08c379a0000000000000000000000000000000000000000000000000000000008152600401611d0c90613968565b60405180910390fd5b6040518060a001604052808381526020013373ffffffffffffffffffffffffffffffffffffffff1681526020013073ffffffffffffffffffffffffffffffffffffffff16815260200182815260200160001515815250600b60008481526020019081526020016000206000820151816000015560208201518160010160006101000a81548173ffffffffffffffffffffffffffffffffffffffff021916908373ffffffffffffffffffffffffffffffffffffffff16021790555060408201518160020160006101000a81548173ffffffffffffffffffffffffffffffffffffffff021916908373ffffffffffffffffffffffffffffffffffffffff1602179055506060820151816003015560808201518160040160006101000a81548160ff021916908315150217905550905050611e4e333084611680565b817fb640004f1d14576d0c209e240cad0410e0d8c0c33a09375861fbadae2588a98d336000846000604051611e869493929190613988565b60405180910390a25050565b8173ffffffffffffffffffffffffffffffffffffffff168373ffffffffffffffffffffffffffffffffffffffff1603611f00576040517f08c379a0000000000000000000000000000000000000000000000000000000008152600401611ef790613a19565b60405180910390fd5b80600560008573ffffffffffffffffffffffffffffffffffffffff1673ffffffffffffffffffffffffffffffffffffffff16815260200190815260200160002060008473ffffffffffffffffffffffffffffffffffffffff1673ffffffffffffffffffffffffffffffffffffffff16815260200190815260200160002060006101000a81548160ff0219169083151502179055508173ffffffffffffffffffffffffffffffffffffffff168373ffffffffffffffffffffffffffffffffffffffff167f17307eab39ab6107e8899845ad3d59bd9653f200f220920489ca2b5937696c3183604051611ff1919061266c565b60405180910390a3505050565b612009848484611680565b61201584848484612190565b612054576040517f08c379a000000000000000000000000000000000000000000000000000000000815260040161204b90613aab565b60405180910390fd5b50505050565b606060405180602001604052806000815250905090565b606061207c826114d1565b600061208661205a565b905060008151116120a657604051806020016040528060008152506120d1565b806120b084612317565b6040516020016120c192919061335a565b6040516020818303038152906040525b915050919050565b60007f01ffc9a7000000000000000000000000000000000000000000000000000000007bffffffffffffffffffffffffffffffffffffffffffffffffffffffff1916827bffffffffffffffffffffffffffffffffffffffffffffffffffffffff1916149050919050565b60008073ffffffffffffffffffffffffffffffffffffffff1661216583611979565b73ffffffffffffffffffffffffffffffffffffffff1614159050919050565b50505050565b50505050565b60006121b18473ffffffffffffffffffffffffffffffffffffffff166123e5565b1561230a578373ffffffffffffffffffffffffffffffffffffffff1663150b7a026121da61151c565b8786866040518563ffffffff1660e01b81526004016121fc9493929190613b20565b6020604051808303816000875af192505050801561223857506040513d601f19601f820116820180604052508101906122359190613b81565b60015b6122ba573d8060008114612268576040519150601f19603f3d011682016040523d82523d6000602084013e61226d565b606091505b5060008151036122b2576040517f08c379a00000000000000000000000000000000000000000000000000000000081526004016122a990613aab565b60405180910390fd5b805181602001fd5b63150b7a0260e01b7bffffffffffffffffffffffffffffffffffffffffffffffffffffffff1916817bffffffffffffffffffffffffffffffffffffffffffffffffffffffff19161491505061230f565b600190505b949350505050565b60606000600161232684612408565b01905060008167ffffffffffffffff81111561234557612344612b13565b5b6040519080825280601f01601f1916602001820160405280156123775781602001600182028036833780820191505090505b509050600082602001820190505b6001156123da578080600190039150507f3031323334353637383961626364656600000000000000000000000000000000600a86061a8153600a85816123ce576123cd613bae565b5b04945060008503612385575b819350505050919050565b6000808273ffffffffffffffffffffffffffffffffffffffff163b119050919050565b600080600090507a184f03e93ff9f4daa797ed6e38ed64bf6a1f0100000000000000008310612466577a184f03e93ff9f4daa797ed6e38ed64bf6a1f010000000000000000838161245c5761245b613bae565b5b0492506040810190505b6d04ee2d6d415b85acef810000000083106124a3576d04ee2d6d415b85acef8100000000838161249957612498613bae565b5b0492506020810190505b662386f26fc1000083106124d257662386f26fc1000083816124c8576124c7613bae565b5b0492506010810190505b6305f5e10083106124fb576305f5e10083816124f1576124f0613bae565b5b0492506008810190505b612710831061252057612710838161251657612515613bae565b5b0492506004810190505b60648310612543576064838161253957612538613bae565b5b0492506002810190505b600a8310612552576001810190505b80915050919050565b6040518060a0016040528060008152602001600073ffffffffffffffffffffffffffffffffffffffff168152602001600073ffffffffffffffffffffffffffffffffffffffff168152602001600081526020016000151581525090565b6000604051905090565b600080fd5b600080fd5b60007fffffffff0000000000000000000000000000000000000000000000000000000082169050919050565b612601816125cc565b811461260c57600080fd5b50565b60008135905061261e816125f8565b92915050565b60006020828403121561263a576126396125c2565b5b60006126488482850161260f565b91505092915050565b60008115159050919050565b61266681612651565b82525050565b6000602082019050612681600083018461265d565b92915050565b600081519050919050565b600082825260208201905092915050565b60005b838110156126c15780820151818401526020810190506126a6565b60008484015250505050565b6000601f19601f8301169050919050565b60006126e982612687565b6126f38185612692565b93506127038185602086016126a3565b61270c816126cd565b840191505092915050565b6000602082019050818103600083015261273181846126de565b905092915050565b6000819050919050565b61274c81612739565b811461275757600080fd5b50565b60008135905061276981612743565b92915050565b600060208284031215612785576127846125c2565b5b60006127938482850161275a565b91505092915050565b600073ffffffffffffffffffffffffffffffffffffffff82169050919050565b60006127c78261279c565b9050919050565b6127d7816127bc565b82525050565b60006020820190506127f260008301846127ce565b92915050565b612801816127bc565b811461280c57600080fd5b50565b60008135905061281e816127f8565b92915050565b6000806040838503121561283b5761283a6125c2565b5b60006128498582860161280f565b925050602061285a8582860161275a565b9150509250929050565b61286d81612739565b82525050565b600061287e8261279c565b9050919050565b61288e81612873565b82525050565b61289d81612651565b82525050565b60a0820160008201516128b96000850182612864565b5060208201516128cc6020850182612885565b5060408201516128df6040850182612885565b5060608201516128f26060850182612864565b5060808201516129056080850182612894565b50505050565b600060a08201905061292060008301846128a3565b92915050565b600081519050919050565b600082825260208201905092915050565b6000819050602082019050919050565b60a0820160008201516129686000850182612864565b50602082015161297b6020850182612885565b50604082015161298e6040850182612885565b5060608201516129a16060850182612864565b5060808201516129b46080850182612894565b50505050565b60006129c68383612952565b60a08301905092915050565b6000602082019050919050565b60006129ea82612926565b6129f48185612931565b93506129ff83612942565b8060005b83811015612a30578151612a1788826129ba565b9750612a22836129d2565b925050600181019050612a03565b5085935050505092915050565b60006020820190508181036000830152612a5781846129df565b905092915050565b600080600060608486031215612a7857612a776125c2565b5b6000612a868682870161280f565b9350506020612a978682870161280f565b9250506040612aa88682870161275a565b9150509250925092565b600060208284031215612ac857612ac76125c2565b5b6000612ad68482850161280f565b91505092915050565b612ae881612739565b82525050565b6000602082019050612b036000830184612adf565b92915050565b600080fd5b600080fd5b7f4e487b7100000000000000000000000000000000000000000000000000000000600052604160045260246000fd5b612b4b826126cd565b810181811067ffffffffffffffff82111715612b6a57612b69612b13565b5b80604052505050565b6000612b7d6125b8565b9050612b898282612b42565b919050565b600067ffffffffffffffff821115612ba957612ba8612b13565b5b612bb2826126cd565b9050602081019050919050565b82818337600083830152505050565b6000612be1612bdc84612b8e565b612b73565b905082815260208101848484011115612bfd57612bfc612b0e565b5b612c08848285612bbf565b509392505050565b600082601f830112612c2557612c24612b09565b5b8135612c35848260208601612bce565b91505092915050565b60008060408385031215612c5557612c546125c2565b5b600083013567ffffffffffffffff811115612c7357612c726125c7565b5b612c7f85828601612c10565b9250506020612c908582860161275a565b9150509250929050565b612ca381612651565b8114612cae57600080fd5b50565b600081359050612cc081612c9a565b92915050565b60008060408385031215612cdd57612cdc6125c2565b5b6000612ceb8582860161280f565b9250506020612cfc85828601612cb1565b9150509250929050565b600067ffffffffffffffff821115612d2157612d20612b13565b5b612d2a826126cd565b9050602081019050919050565b6000612d4a612d4584612d06565b612b73565b905082815260208101848484011115612d6657612d65612b0e565b5b612d71848285612bbf565b509392505050565b600082601f830112612d8e57612d8d612b09565b5b8135612d9e848260208601612d37565b91505092915050565b60008060008060808587031215612dc157612dc06125c2565b5b6000612dcf8782880161280f565b9450506020612de08782880161280f565b9350506040612df18782880161275a565b925050606085013567ffffffffffffffff811115612e1257612e116125c7565b5b612e1e87828801612d79565b91505092959194509250565b60008060408385031215612e4157612e406125c2565b5b6000612e4f8582860161280f565b9250506020612e608582860161280f565b9150509250929050565b7f4e487b7100000000000000000000000000000000000000000000000000000000600052602260045260246000fd5b60006002820490506001821680612eb157607f821691505b602082108103612ec457612ec3612e6a565b5b50919050565b7f4552433732313a20617070726f76616c20746f2063757272656e74206f776e6560008201527f7200000000000000000000000000000000000000000000000000000000000000602082015250565b6000612f26602183612692565b9150612f3182612eca565b604082019050919050565b60006020820190508181036000830152612f5581612f19565b9050919050565b7f4552433732313a20617070726f76652063616c6c6572206973206e6f7420746f60008201527f6b656e206f776e6572206f7220617070726f76656420666f7220616c6c000000602082015250565b6000612fb8603d83612692565b9150612fc382612f5c565b604082019050919050565b60006020820190508181036000830152612fe781612fab565b9050919050565b7f4e487b7100000000000000000000000000000000000000000000000000000000600052601160045260246000fd5b600061302882612739565b915061303383612739565b925082820390508181111561304b5761304a612fee565b5b92915050565b600061305c82612739565b915061306783612739565b925082820190508082111561307f5761307e612fee565b5b92915050565b7f4e487b7100000000000000000000000000000000000000000000000000000000600052603260045260246000fd5b60006130bf82612739565b91507fffffffffffffffffffffffffffffffffffffffffffffffffffffffffffffffff82036130f1576130f0612fee565b5b600182019050919050565b7f4552433732313a2063616c6c6572206973206e6f7420746f6b656e206f776e6560008201527f72206f7220617070726f76656400000000000000000000000000000000000000602082015250565b6000613158602d83612692565b9150613163826130fc565b604082019050919050565b600060208201905081810360008301526131878161314b565b9050919050565b7f4552433732313a20696e76616c696420746f6b656e2049440000000000000000600082015250565b60006131c4601883612692565b91506131cf8261318e565b602082019050919050565b600060208201905081810360008301526131f3816131b7565b9050919050565b7f4552433732313a2061646472657373207a65726f206973206e6f74206120766160008201527f6c6964206f776e65720000000000000000000000000000000000000000000000602082015250565b6000613256602983612692565b9150613261826131fa565b604082019050919050565b6000602082019050818103600083015261328581613249565b9050919050565b7f506c65617365207375626d6974207468652061736b696e67207072696365206960008201527f6e206f7264657220746f20636f6d706c65746520746865207075726368617365602082015250565b60006132e8604083612692565b91506132f38261328c565b604082019050919050565b60006020820190508181036000830152613317816132db565b9050919050565b600081905092915050565b600061333482612687565b61333e818561331e565b935061334e8185602086016126a3565b80840191505092915050565b60006133668285613329565b91506133728284613329565b91508190509392505050565b7f4552433732313a207472616e736665722066726f6d20696e636f72726563742060008201527f6f776e6572000000000000000000000000000000000000000000000000000000602082015250565b60006133da602583612692565b91506133e58261337e565b604082019050919050565b60006020820190508181036000830152613409816133cd565b9050919050565b7f4552433732313a207472616e7366657220746f20746865207a65726f2061646460008201527f7265737300000000000000000000000000000000000000000000000000000000602082015250565b600061346c602483612692565b915061347782613410565b604082019050919050565b6000602082019050818103600083015261349b8161345f565b9050919050565b7f4552433732313a206d696e7420746f20746865207a65726f2061646472657373600082015250565b60006134d8602083612692565b91506134e3826134a2565b602082019050919050565b60006020820190508181036000830152613507816134cb565b9050919050565b7f4552433732313a20746f6b656e20616c7265616479206d696e74656400000000600082015250565b6000613544601c83612692565b915061354f8261350e565b602082019050919050565b6000602082019050818103600083015261357381613537565b9050919050565b7f45524337323155524953746f726167653a2055524920736574206f66206e6f6e60008201527f6578697374656e7420746f6b656e000000000000000000000000000000000000602082015250565b60006135d6602e83612692565b91506135e18261357a565b604082019050919050565b60006020820190508181036000830152613605816135c9565b9050919050565b60008190508160005260206000209050919050565b60006020601f8301049050919050565b600082821b905092915050565b60006008830261366e7fffffffffffffffffffffffffffffffffffffffffffffffffffffffffffffffff82613631565b6136788683613631565b95508019841693508086168417925050509392505050565b6000819050919050565b60006136b56136b06136ab84612739565b613690565b612739565b9050919050565b6000819050919050565b6136cf8361369a565b6136e36136db826136bc565b84845461363e565b825550505050565b600090565b6136f86136eb565b6137038184846136c6565b505050565b5b818110156137275761371c6000826136f0565b600181019050613709565b5050565b601f82111561376c5761373d8161360c565b61374684613621565b81016020851015613755578190505b61376961376185613621565b830182613708565b50505b505050565b600082821c905092915050565b600061378f60001984600802613771565b1980831691505092915050565b60006137a8838361377e565b9150826002028217905092915050565b6137c182612687565b67ffffffffffffffff8111156137da576137d9612b13565b5b6137e48254612e99565b6137ef82828561372b565b600060209050601f8311600181146138225760008415613810578287015190505b61381a858261379c565b865550613882565b601f1984166138308661360c565b60005b8281101561385857848901518255600182019150602085019450602081019050613833565b868310156138755784890151613871601f89168261377e565b8355505b6001600288020188555050505b505050505050565b7f5072696365206d75737420626520706f73697469766500000000000000000000600082015250565b60006138c0601683612692565b91506138cb8261388a565b602082019050919050565b600060208201905081810360008301526138ef816138b3565b9050919050565b7f596f75722072656d61696e206d6f6e6579206d757374206265206174206c656160008201527f737420657175616c20746f20746865206c697374696e67206665650000000000602082015250565b6000613952603b83612692565b915061395d826138f6565b604082019050919050565b6000602082019050818103600083015261398181613945565b9050919050565b600060808201905061399d60008301876127ce565b6139aa60208301866127ce565b6139b76040830185612adf565b6139c4606083018461265d565b95945050505050565b7f4552433732313a20617070726f766520746f2063616c6c657200000000000000600082015250565b6000613a03601983612692565b9150613a0e826139cd565b602082019050919050565b60006020820190508181036000830152613a32816139f6565b9050919050565b7f4552433732313a207472616e7366657220746f206e6f6e20455243373231526560008201527f63656976657220696d706c656d656e7465720000000000000000000000000000602082015250565b6000613a95603283612692565b9150613aa082613a39565b604082019050919050565b60006020820190508181036000830152613ac481613a88565b9050919050565b600081519050919050565b600082825260208201905092915050565b6000613af282613acb565b613afc8185613ad6565b9350613b0c8185602086016126a3565b613b15816126cd565b840191505092915050565b6000608082019050613b3560008301876127ce565b613b4260208301866127ce565b613b4f6040830185612adf565b8181036060830152613b618184613ae7565b905095945050505050565b600081519050613b7b816125f8565b92915050565b600060208284031215613b9757613b966125c2565b5b6000613ba584828501613b6c565b91505092915050565b7f4e487b7100000000000000000000000000000000000000000000000000000000600052601260045260246000fdfea264697066735822122082712785ffd00987196d598d9266e7c5653d9b94070428b594545a6c708d54a564736f6c63430008130033",
  "linkReferences": {},
  "deployedLinkReferences": {}
}